{
  "address": "0x6Ebaf8BAFcd0d5D0A41835334fEE3ec1A0e9D048",
  "abi": [
    {
      "inputs": [
        {
          "internalType": "address",
          "name": "WETH_",
          "type": "address"
        }
      ],
      "stateMutability": "nonpayable",
      "type": "constructor"
    },
    {
      "inputs": [],
      "name": "WETH",
      "outputs": [
        {
          "internalType": "address",
          "name": "",
          "type": "address"
        }
      ],
      "stateMutability": "view",
      "type": "function"
    },
    {
      "inputs": [
        {
          "internalType": "address",
          "name": "dest",
          "type": "address"
        },
        {
          "internalType": "address[]",
          "name": "path",
          "type": "address[]"
        },
        {
          "internalType": "uint256",
          "name": "amountOut",
          "type": "uint256"
        },
        {
          "internalType": "uint256",
          "name": "deadline",
          "type": "uint256"
        },
        {
          "internalType": "bytes",
          "name": "data",
          "type": "bytes"
        }
      ],
      "name": "buyExactTokenValuatedResourceByETH",
      "outputs": [
        {
          "internalType": "uint256[]",
          "name": "values",
          "type": "uint256[]"
        }
      ],
      "stateMutability": "payable",
      "type": "function"
    },
    {
      "inputs": [
        {
          "internalType": "address",
          "name": "dest",
          "type": "address"
        },
        {
          "internalType": "address[]",
          "name": "path",
          "type": "address[]"
        },
        {
          "internalType": "uint256",
          "name": "amountOut",
          "type": "uint256"
        },
        {
          "internalType": "uint256",
          "name": "valueInMax",
          "type": "uint256"
        },
        {
          "internalType": "uint256",
          "name": "deadline",
          "type": "uint256"
        },
        {
          "internalType": "bytes",
          "name": "data",
          "type": "bytes"
        }
      ],
      "name": "buyExactTokenValuatedResourceByOtherToken",
      "outputs": [
        {
          "internalType": "uint256[]",
          "name": "values",
          "type": "uint256[]"
        }
      ],
      "stateMutability": "nonpayable",
      "type": "function"
    },
    {
      "inputs": [
        {
          "internalType": "uint256",
          "name": "amountOut",
          "type": "uint256"
        },
        {
          "internalType": "address[]",
          "name": "path",
          "type": "address[]"
        }
      ],
      "name": "getAmountsIn",
      "outputs": [
        {
          "internalType": "uint256[]",
          "name": "",
          "type": "uint256[]"
        }
      ],
      "stateMutability": "view",
      "type": "function"
    },
    {
      "inputs": [],
      "name": "routerV2",
      "outputs": [
        {
          "internalType": "contract IUniswapV2Router02",
          "name": "",
          "type": "address"
        }
      ],
      "stateMutability": "view",
      "type": "function"
    }
  ],
  "transactionHash": "0x56f87fcacc01022118becce423f97d984f65301e04f1c488b2d14116b764ea53",
  "args": [
    "0xB4FBF271143F4FBf7B91A5ded31805e42b2208d6"
  ],
  "bytecode": "0x6080604052600180546001600160a01b031916737a250d5630b4cf539739df2c5dacb4c659f2488d17905534801561003657600080fd5b506040516111853803806111858339810160408190526100559161007a565b600080546001600160a01b0319166001600160a01b03929092169190911790556100a8565b60006020828403121561008b578081fd5b81516001600160a01b03811681146100a1578182fd5b9392505050565b6110ce806100b76000396000f3fe6080604052600436106100495760003560e01c80626aef7f1461004e5780631f00ca7414610077578063502f74461461009757806354746399146100b9578063ad5c4648146100d9575b600080fd5b61006161005c3660046109de565b6100ee565b60405161006e9190610d3a565b60405180910390f35b34801561008357600080fd5b50610061610092366004610c2b565b6102df565b3480156100a357600080fd5b506100ac61036d565b60405161006e9190610ccf565b3480156100c557600080fd5b506100616100d4366004610a63565b61037c565b3480156100e557600080fd5b506100ac61056b565b6060600185511161011a5760405162461bcd60e51b815260040161011190610df7565b60405180910390fd5b6000805486516001600160a01b0390911691879161014857634e487b7160e01b600052603260045260246000fd5b60200260200101516001600160a01b0316146101765760405162461bcd60e51b815260040161011190610ea6565b60015460405163fb3bdb4160e01b81526001600160a01b039091169063fb3bdb419034906101ae9088908a9030908a90600401610f4c565b6000604051808303818588803b1580156101c757600080fd5b505af11580156101db573d6000803e3d6000fd5b50505050506040513d6000823e601f3d908101601f191682016040526102049190810190610af0565b905060008160008151811061022957634e487b7160e01b600052603260045260246000fd5b602002602001015190508034111561027357336108fc610249348461057a565b6040518115909202916000818181858888f19350505050158015610271573d6000803e3d6000fd5b505b600086600188516102849190611033565b815181106102a257634e487b7160e01b600052603260045260246000fd5b602002602001015190506102ca8887836001600160a01b03166105869092919063ffffffff16565b6102d48885610685565b505095945050505050565b6001546040516307c0329d60e21b81526060916001600160a01b031690631f00ca74906103129086908690600401610f33565b60006040518083038186803b15801561032a57600080fd5b505afa15801561033e573d6000803e3d6000fd5b505050506040513d6000823e601f3d908101601f191682016040526103669190810190610af0565b9392505050565b6001546001600160a01b031681565b6060600186511161039f5760405162461bcd60e51b815260040161011190610df7565b6000866000815181106103c257634e487b7160e01b600052603260045260246000fd5b602090810291909101015190506103e46001600160a01b03821633308861071f565b6001546103fe906001600160a01b03838116911687610586565b600154604051634401edf760e11b81526001600160a01b0390911690638803dbee9061043690899089908c9030908b90600401610f81565b600060405180830381600087803b15801561045057600080fd5b505af1158015610464573d6000803e3d6000fd5b505050506040513d6000823e601f3d908101601f1916820160405261048c9190810190610af0565b91506000826000815181106104b157634e487b7160e01b600052603260045260246000fd5b60200260200101519050858110156104e2576104e2336104d1888461057a565b6001600160a01b0385169190610740565b6001546104fd906001600160a01b0384811691166000610586565b60008860018a5161050e9190611033565b8151811061052c57634e487b7160e01b600052603260045260246000fd5b602002602001015190506105548a89836001600160a01b03166105869092919063ffffffff16565b61055e8a86610685565b5050509695505050505050565b6000546001600160a01b031681565b60006103668284611033565b80158061060e5750604051636eb1769f60e11b81526001600160a01b0384169063dd62ed3e906105bc9030908690600401610ce3565b60206040518083038186803b1580156105d457600080fd5b505afa1580156105e8573d6000803e3d6000fd5b505050506040513d601f19601f8201168201806040525081019061060c9190610c13565b155b61062a5760405162461bcd60e51b815260040161011190610edd565b6106808363095ea7b360e01b8484604051602401610649929190610d21565b60408051601f198184030181529190526020810180516001600160e01b03166001600160e01b03199093169290921790915261075f565b505050565b600080836001600160a01b0316836040516106a09190610cb3565b6000604051808303816000865af19150503d80600081146106dd576040519150601f19603f3d011682016040523d82523d6000602084013e6106e2565b606091505b50915091508161071957808060200190518101906107009190610ba0565b60405162461bcd60e51b81526004016101119190610d7e565b50505050565b610719846323b872dd60e01b85858560405160240161064993929190610cfd565b6106808363a9059cbb60e01b8484604051602401610649929190610d21565b60006107b4826040518060400160405280602081526020017f5361666545524332303a206c6f772d6c6576656c2063616c6c206661696c6564815250856001600160a01b03166107ee9092919063ffffffff16565b80519091501561068057808060200190518101906107d29190610b80565b6106805760405162461bcd60e51b815260040161011190610e5c565b60606107fd8484600085610805565b949350505050565b6060824710156108275760405162461bcd60e51b815260040161011190610db1565b610830856108c5565b61084c5760405162461bcd60e51b815260040161011190610e25565b600080866001600160a01b031685876040516108689190610cb3565b60006040518083038185875af1925050503d80600081146108a5576040519150601f19603f3d011682016040523d82523d6000602084013e6108aa565b606091505b50915091506108ba8282866108cf565b979650505050505050565b803b15155b919050565b606083156108de575081610366565b8251156108ee5782518084602001fd5b8160405162461bcd60e51b81526004016101119190610d7e565b80356001600160a01b03811681146108ca57600080fd5b600082601f83011261092f578081fd5b8135602061094461093f83610fe7565b610fbd565b8281528181019085830183850287018401881015610960578586fd5b855b858110156109855761097382610908565b84529284019290840190600101610962565b5090979650505050505050565b600082601f8301126109a2578081fd5b81356109b061093f8261100b565b8181528460208386010111156109c4578283fd5b816020850160208301379081016020019190915292915050565b600080600080600060a086880312156109f5578081fd5b6109fe86610908565b9450602086013567ffffffffffffffff80821115610a1a578283fd5b610a2689838a0161091f565b955060408801359450606088013593506080880135915080821115610a49578283fd5b50610a5688828901610992565b9150509295509295909350565b60008060008060008060c08789031215610a7b578081fd5b610a8487610908565b9550602087013567ffffffffffffffff80821115610aa0578283fd5b610aac8a838b0161091f565b965060408901359550606089013594506080890135935060a0890135915080821115610ad6578283fd5b50610ae389828a01610992565b9150509295509295509295565b60006020808385031215610b02578182fd5b825167ffffffffffffffff811115610b18578283fd5b8301601f81018513610b28578283fd5b8051610b3661093f82610fe7565b8181528381019083850185840285018601891015610b52578687fd5b8694505b83851015610b74578051835260019490940193918501918501610b56565b50979650505050505050565b600060208284031215610b91578081fd5b81518015158114610366578182fd5b600060208284031215610bb1578081fd5b815167ffffffffffffffff811115610bc7578182fd5b8201601f81018413610bd7578182fd5b8051610be561093f8261100b565b818152856020838501011115610bf9578384fd5b610c0a826020830160208601611056565b95945050505050565b600060208284031215610c24578081fd5b5051919050565b60008060408385031215610c3d578182fd5b82359150602083013567ffffffffffffffff811115610c5a578182fd5b610c668582860161091f565b9150509250929050565b6000815180845260208085019450808401835b83811015610ca85781516001600160a01b031687529582019590820190600101610c83565b509495945050505050565b60008251610cc5818460208701611056565b9190910192915050565b6001600160a01b0391909116815260200190565b6001600160a01b0392831681529116602082015260400190565b6001600160a01b039384168152919092166020820152604081019190915260600190565b6001600160a01b03929092168252602082015260400190565b6020808252825182820181905260009190848201906040850190845b81811015610d7257835183529284019291840191600101610d56565b50909695505050505050565b6000602082528251806020840152610d9d816040850160208701611056565b601f01601f19169190910160400192915050565b60208082526026908201527f416464726573733a20696e73756666696369656e742062616c616e636520666f6040820152651c8818d85b1b60d21b606082015260800190565b60208082526014908201527329bbb0b8399d1024b73b30b634b2103830ba341760611b604082015260600190565b6020808252601d908201527f416464726573733a2063616c6c20746f206e6f6e2d636f6e7472616374000000604082015260600190565b6020808252602a908201527f5361666545524332303a204552433230206f7065726174696f6e20646964206e6040820152691bdd081cdd58d8d9595960b21b606082015260800190565b6020808252601a908201527f53776170733a204e6f7420455448207377617020706174682e2e000000000000604082015260600190565b60208082526036908201527f5361666545524332303a20617070726f76652066726f6d206e6f6e2d7a65726f60408201527520746f206e6f6e2d7a65726f20616c6c6f77616e636560501b606082015260800190565b6000838252604060208301526107fd6040830184610c70565b600085825260806020830152610f656080830186610c70565b6001600160a01b03949094166040830152506060015292915050565b600086825285602083015260a06040830152610fa060a0830186610c70565b6001600160a01b0394909416606083015250608001529392505050565b60405181810167ffffffffffffffff81118282101715610fdf57610fdf611082565b604052919050565b600067ffffffffffffffff82111561100157611001611082565b5060209081020190565b600067ffffffffffffffff82111561102557611025611082565b50601f01601f191660200190565b60008282101561105157634e487b7160e01b81526011600452602481fd5b500390565b60005b83811015611071578181015183820152602001611059565b838111156107195750506000910152565b634e487b7160e01b600052604160045260246000fdfea26469706673582212207efac3a07738ae7c48df99f3ceeda7b4fd7f9146f1bc0580647d064c9f9aca1564736f6c63430008000033"
}